{"abi":[{"type":"function","name":"DATA_RETENTION_DAYS","inputs":[],"outputs":[{"name":"","type":"uint256","internalType":"uint256"}],"stateMutability":"view"},{"type":"function","name":"cleanupOldData","inputs":[{"name":"deviceId","type":"string","internalType":"string"},{"name":"batchSize","type":"uint256","internalType":"uint256"}],"outputs":[],"stateMutability":"nonpayable"},{"type":"function","name":"deviceDailyData","inputs":[{"name":"","type":"string","internalType":"string"},{"name":"","type":"uint256","internalType":"uint256"}],"outputs":[{"name":"timestamp","type":"uint256","internalType":"uint256"},{"name":"energyUsage","type":"uint256","internalType":"uint256"},{"name":"dataSource","type":"string","internalType":"string"},{"name":"metadata","type":"string","internalType":"string"}],"stateMutability":"view"},{"type":"function","name":"deviceMonthlyData","inputs":[{"name":"","type":"string","internalType":"string"},{"name":"","type":"uint256","internalType":"uint256"}],"outputs":[{"name":"monthTimestamp","type":"uint256","internalType":"uint256"},{"name":"totalEnergyUsage","type":"uint256","internalType":"uint256"},{"name":"daysRecorded","type":"uint256","internalType":"uint256"}],"stateMutability":"view"},{"type":"function","name":"devices","inputs":[{"name":"","type":"string","internalType":"string"}],"outputs":[{"name":"deviceId","type":"string","internalType":"string"},{"name":"deviceType","type":"string","internalType":"string"},{"name":"owner","type":"address","internalType":"address"},{"name":"isActive","type":"bool","internalType":"bool"},{"name":"registrationTime","type":"uint256","internalType":"uint256"}],"stateMutability":"view"},{"type":"function","name":"getCurrentMonthTimestamp","inputs":[],"outputs":[{"name":"","type":"uint256","internalType":"uint256"}],"stateMutability":"view"},{"type":"function","name":"getDeviceEnergyData","inputs":[{"name":"deviceId","type":"string","internalType":"string"},{"name":"fromDate","type":"uint256","internalType":"uint256"},{"name":"toDate","type":"uint256","internalType":"uint256"}],"outputs":[{"name":"","type":"tuple[]","internalType":"struct EnergyTracker.EnergyData[]","components":[{"name":"timestamp","type":"uint256","internalType":"uint256"},{"name":"energyUsage","type":"uint256","internalType":"uint256"},{"name":"dataSource","type":"string","internalType":"string"},{"name":"metadata","type":"string","internalType":"string"}]}],"stateMutability":"view"},{"type":"function","name":"getDeviceInfo","inputs":[{"name":"deviceId","type":"string","internalType":"string"}],"outputs":[{"name":"","type":"tuple","internalType":"struct EnergyTracker.Device","components":[{"name":"deviceId","type":"string","internalType":"string"},{"name":"deviceType","type":"string","internalType":"string"},{"name":"owner","type":"address","internalType":"address"},{"name":"isActive","type":"bool","internalType":"bool"},{"name":"registrationTime","type":"uint256","internalType":"uint256"}]}],"stateMutability":"view"},{"type":"function","name":"getMonthlyAggregate","inputs":[{"name":"deviceId","type":"string","internalType":"string"},{"name":"monthTimestamp","type":"uint256","internalType":"uint256"}],"outputs":[{"name":"","type":"tuple","internalType":"struct EnergyTracker.MonthlyAggregate","components":[{"name":"monthTimestamp","type":"uint256","internalType":"uint256"},{"name":"totalEnergyUsage","type":"uint256","internalType":"uint256"},{"name":"daysRecorded","type":"uint256","internalType":"uint256"}]}],"stateMutability":"view"},{"type":"function","name":"getMonthlyAggregates","inputs":[{"name":"deviceId","type":"string","internalType":"string"},{"name":"fromMonth","type":"uint256","internalType":"uint256"},{"name":"toMonth","type":"uint256","internalType":"uint256"}],"outputs":[{"name":"","type":"tuple[]","internalType":"struct EnergyTracker.MonthlyAggregate[]","components":[{"name":"monthTimestamp","type":"uint256","internalType":"uint256"},{"name":"totalEnergyUsage","type":"uint256","internalType":"uint256"},{"name":"daysRecorded","type":"uint256","internalType":"uint256"}]}],"stateMutability":"view"},{"type":"function","name":"recordEnergyUsage","inputs":[{"name":"deviceId","type":"string","internalType":"string"},{"name":"energyUsage","type":"uint256","internalType":"uint256"},{"name":"dataSource","type":"string","internalType":"string"},{"name":"metadata","type":"string","internalType":"string"}],"outputs":[],"stateMutability":"nonpayable"},{"type":"function","name":"registerDevice","inputs":[{"name":"deviceId","type":"string","internalType":"string"},{"name":"deviceType","type":"string","internalType":"string"}],"outputs":[],"stateMutability":"nonpayable"},{"type":"event","name":"DeviceRegistered","inputs":[{"name":"deviceId","type":"string","indexed":false,"internalType":"string"},{"name":"deviceType","type":"string","indexed":false,"internalType":"string"},{"name":"owner","type":"address","indexed":false,"internalType":"address"}],"anonymous":false},{"type":"event","name":"EnergyDataRecorded","inputs":[{"name":"deviceId","type":"string","indexed":false,"internalType":"string"},{"name":"energyUsage","type":"uint256","indexed":false,"internalType":"uint256"},{"name":"timestamp","type":"uint256","indexed":false,"internalType":"uint256"}],"anonymous":false}],"bytecode":{"object":"0x6080604052348015600e575f5ffd5b506129a58061001c5f395ff3fe608060405234801561000f575f5ffd5b50600436106100b2575f3560e01c806351c154461161006f57806351c15446146101a057806357f4a546146101d05780637a27d0d7146101ee578063d38f0a841461020a578063de05a18f1461023d578063f9b7fabe1461026f576100b2565b80630f2c624d146100b657806322233396146100e6578063248444531461011a5780633044ef4914610136578063357078df146101665780634c32f34714610184575b5f5ffd5b6100d060048036038101906100cb91906119dc565b61029f565b6040516100dd9190611bd9565b60405180910390f35b61010060048036038101906100fb9190611bf9565b610532565b604051610111959493929190611cf0565b60405180910390f35b610134600480360381019061012f9190611d4f565b6106b3565b005b610150600480360381019061014b9190611bf9565b6109e3565b60405161015d9190611e9f565b60405180910390f35b61016e610c60565b60405161017b9190611ebf565b60405180910390f35b61019e60048036038101906101999190611ed8565b610c6f565b005b6101ba60048036038101906101b591906119dc565b610e55565b6040516101c79190612036565b60405180910390f35b6101d8610fdf565b6040516101e59190611ebf565b60405180910390f35b61020860048036038101906102039190612056565b610fe5565b005b610224600480360381019061021f9190612056565b6111f9565b60405161023494939291906120b0565b60405180910390f35b61025760048036038101906102529190612056565b611354565b60405161026693929190612101565b60405180910390f35b61028960048036038101906102849190612056565b61139d565b6040516102969190612176565b60405180910390f35b6060828210156102e4576040517f08c379a00000000000000000000000000000000000000000000000000000000081526004016102db906121d9565b60405180910390fd5b5f60016201518085856102f79190612224565b6103019190612284565b61030b91906122b4565b90505f8167ffffffffffffffff81111561032857610327611885565b5b60405190808252806020026020018201604052801561036157816020015b61034e61177c565b8152602001906001900390816103465790505b5090505f5f90505b82811015610525575f620151808261038191906122e7565b8761038c91906122b4565b905060018860405161039e9190612362565b90815260200160405180910390205f8281526020019081526020015f206040518060800160405290815f8201548152602001600182015481526020016002820180546103e9906123a5565b80601f0160208091040260200160405190810160405280929190818152602001828054610415906123a5565b80156104605780601f1061043757610100808354040283529160200191610460565b820191905f5260205f20905b81548152906001019060200180831161044357829003601f168201915b50505050508152602001600382018054610479906123a5565b80601f01602080910402602001604051908101604052809291908181526020018280546104a5906123a5565b80156104f05780601f106104c7576101008083540402835291602001916104f0565b820191905f5260205f20905b8154815290600101906020018083116104d357829003601f168201915b50505050508152505083838151811061050c5761050b6123d5565b5b6020026020010181905250508080600101915050610369565b5080925050509392505050565b5f818051602081018201805184825260208301602085012081835280955050505050505f91509050805f018054610568906123a5565b80601f0160208091040260200160405190810160405280929190818152602001828054610594906123a5565b80156105df5780601f106105b6576101008083540402835291602001916105df565b820191905f5260205f20905b8154815290600101906020018083116105c257829003601f168201915b5050505050908060010180546105f4906123a5565b80601f0160208091040260200160405190810160405280929190818152602001828054610620906123a5565b801561066b5780601f106106425761010080835404028352916020019161066b565b820191905f5260205f20905b81548152906001019060200180831161064e57829003601f168201915b505050505090806002015f9054906101000a900473ffffffffffffffffffffffffffffffffffffffff16908060020160149054906101000a900460ff16908060030154905085565b833373ffffffffffffffffffffffffffffffffffffffff165f826040516106da9190612362565b90815260200160405180910390206002015f9054906101000a900473ffffffffffffffffffffffffffffffffffffffff1673ffffffffffffffffffffffffffffffffffffffff1614610761576040517f08c379a00000000000000000000000000000000000000000000000000000000081526004016107589061244c565b60405180910390fd5b5f856040516107709190612362565b908152602001604051809103902060020160149054906101000a900460ff166107ce576040517f08c379a00000000000000000000000000000000000000000000000000000000081526004016107c5906124b4565b60405180910390fd5b5f62015180426107de91906124d2565b426107e99190612224565b90505f6107f542611402565b90505f5f6001896040516108099190612362565b90815260200160405180910390205f8581526020019081526020015f205f015414905060405180608001604052804281526020018881526020018781526020018681525060018960405161085d9190612362565b90815260200160405180910390205f8581526020019081526020015f205f820151815f01556020820151816001015560408201518160020190816108a191906126a2565b5060608201518160030190816108b791906126a2565b509050505f6002896040516108cc9190612362565b90815260200160405180910390205f8481526020019081526020015f2090505f815f015403610962576040518060600160405280848152602001898152602001600181525060028a6040516109219190612362565b90815260200160405180910390205f8581526020019081526020015f205f820151815f0155602082015181600101556040820151816002015590505061099d565b87816001015f82825461097591906122b4565b92505081905550811561099c57806002015f81548092919061099690612771565b91905055505b5b7f894ae8427e58d0d7f24127e3dd4321bf928c688cb316bc905ddef4695583e3608989426040516109d0939291906127b8565b60405180910390a1505050505050505050565b6109eb6117a2565b5f73ffffffffffffffffffffffffffffffffffffffff165f83604051610a119190612362565b90815260200160405180910390206002015f9054906101000a900473ffffffffffffffffffffffffffffffffffffffff1673ffffffffffffffffffffffffffffffffffffffff1603610a98576040517f08c379a0000000000000000000000000000000000000000000000000000000008152600401610a8f9061283e565b60405180910390fd5b5f82604051610aa79190612362565b90815260200160405180910390206040518060a00160405290815f82018054610acf906123a5565b80601f0160208091040260200160405190810160405280929190818152602001828054610afb906123a5565b8015610b465780601f10610b1d57610100808354040283529160200191610b46565b820191905f5260205f20905b815481529060010190602001808311610b2957829003601f168201915b50505050508152602001600182018054610b5f906123a5565b80601f0160208091040260200160405190810160405280929190818152602001828054610b8b906123a5565b8015610bd65780601f10610bad57610100808354040283529160200191610bd6565b820191905f5260205f20905b815481529060010190602001808311610bb957829003601f168201915b50505050508152602001600282015f9054906101000a900473ffffffffffffffffffffffffffffffffffffffff1673ffffffffffffffffffffffffffffffffffffffff1673ffffffffffffffffffffffffffffffffffffffff1681526020016002820160149054906101000a900460ff161515151581526020016003820154815250509050919050565b5f610c6a42611402565b905090565b5f73ffffffffffffffffffffffffffffffffffffffff165f83604051610c959190612362565b90815260200160405180910390206002015f9054906101000a900473ffffffffffffffffffffffffffffffffffffffff1673ffffffffffffffffffffffffffffffffffffffff1614610d1c576040517f08c379a0000000000000000000000000000000000000000000000000000000008152600401610d13906128a6565b60405180910390fd5b6040518060a001604052808381526020018281526020013373ffffffffffffffffffffffffffffffffffffffff168152602001600115158152602001428152505f83604051610d6b9190612362565b90815260200160405180910390205f820151815f019081610d8c91906126a2565b506020820151816001019081610da291906126a2565b506040820151816002015f6101000a81548173ffffffffffffffffffffffffffffffffffffffff021916908373ffffffffffffffffffffffffffffffffffffffff16021790555060608201518160020160146101000a81548160ff021916908315150217905550608082015181600301559050507f9b5f010993bc2c5b2a4beecb9ce0d408e24bd8e3f44e5aecf40f4cdffd145b1d828233604051610e49939291906128c4565b60405180910390a15050565b606082821015610e9a576040517f08c379a0000000000000000000000000000000000000000000000000000000008152600401610e91906121d9565b60405180910390fd5b5f600190505f8490505b83811015610eca57610eb581611430565b90508180610ec290612771565b925050610ea4565b5f8267ffffffffffffffff811115610ee557610ee4611885565b5b604051908082528060200260200182016040528015610f1e57816020015b610f0b6117e6565b815260200190600190039081610f035790505b5090508591505f5f90505b83811015610fd157600288604051610f419190612362565b90815260200160405180910390205f8481526020019081526020015f206040518060600160405290815f820154815260200160018201548152602001600282015481525050828281518110610f9957610f986123d5565b5b6020026020010181905250600184610fb19190612224565b811015610fc457610fc183611430565b92505b8080600101915050610f29565b508093505050509392505050565b61016e81565b813373ffffffffffffffffffffffffffffffffffffffff165f8260405161100c9190612362565b90815260200160405180910390206002015f9054906101000a900473ffffffffffffffffffffffffffffffffffffffff1673ffffffffffffffffffffffffffffffffffffffff1614611093576040517f08c379a000000000000000000000000000000000000000000000000000000000815260040161108a9061244c565b60405180910390fd5b5f821180156110a3575060648211155b6110e2576040517f08c379a00000000000000000000000000000000000000000000000000000000081526004016110d990612951565b60405180910390fd5b5f6201518061016e6110f491906122e7565b426110ff9190612224565b90505f620151804261111191906124d2565b4261111c9190612224565b90505f5f90505f8290505b858210801561113557508381115b156111f0575f60018860405161114b9190612362565b90815260200160405180910390205f8381526020019081526020015f205f0154146111cc576001876040516111809190612362565b90815260200160405180910390205f8281526020019081526020015f205f5f82015f9055600182015f9055600282015f6111ba9190611804565b600382015f6111c99190611804565b50505b62015180816111db9190612224565b905081806111e890612771565b925050611127565b50505050505050565b600182805160208101820180518482526020830160208501208183528095505050505050602052805f5260405f205f9150915050805f015490806001015490806002018054611247906123a5565b80601f0160208091040260200160405190810160405280929190818152602001828054611273906123a5565b80156112be5780601f10611295576101008083540402835291602001916112be565b820191905f5260205f20905b8154815290600101906020018083116112a157829003601f168201915b5050505050908060030180546112d3906123a5565b80601f01602080910402602001604051908101604052809291908181526020018280546112ff906123a5565b801561134a5780601f106113215761010080835404028352916020019161134a565b820191905f5260205f20905b81548152906001019060200180831161132d57829003601f168201915b5050505050905084565b600282805160208101820180518482526020830160208501208183528095505050505050602052805f5260405f205f9150915050805f0154908060010154908060020154905083565b6113a56117e6565b6002836040516113b59190612362565b90815260200160405180910390205f8381526020019081526020015f206040518060600160405290815f820154815260200160018201548152602001600282015481525050905092915050565b5f5f61140d83611494565b90505f61141984611515565b905061142782826001611646565b92505050919050565b5f5f61143b83611494565b90505f61144784611515565b9050600c81036114725761146960018361146191906122b4565b600180611646565b9250505061148f565b61148a8260018361148391906122b4565b6001611646565b925050505b919050565b5f5f6301e1338090505f81846114aa9190612284565b6107b26114b791906122b4565b90505f60046107b4836114ca9190612224565b6114d49190612284565b90508262015180826114e691906122e7565b866114f191906122b4565b6114fb9190612284565b6107b261150891906122b4565b9150819350505050919050565b5f5f61152083611494565b90505f61152f82600180611646565b90505f60016201518083876115449190612224565b61154e9190612284565b61155891906122b4565b9050601f811161156e5760019350505050611641565b603b81116115825760029350505050611641565b605a81116115965760039350505050611641565b607881116115aa5760049350505050611641565b609781116115be5760059350505050611641565b60b581116115d25760069350505050611641565b60d481116115e65760079350505050611641565b60f381116115fa5760089350505050611641565b610111811161160f5760099350505050611641565b610130811161162457600a9350505050611641565b61014e811161163957600b9350505050611641565b600c93505050505b919050565b5f5f6301e133806107b28661165b9190612224565b61166591906122e7565b90506201518060046107b48761167b9190612224565b6116859190612284565b61168f91906122e7565b8161169a91906122b4565b90505f6040518061018001604052805f8152602001601f8152602001603b8152602001605a8152602001607881526020016097815260200160b5815260200160d4815260200160f381526020016101118152602001610130815260200161014e8152509050600185111561174857620151808160018761171a9190612224565b600c811061172b5761172a6123d5565b5b602002015161173a91906122e7565b8261174591906122b4565b91505b620151806001856117599190612224565b61176391906122e7565b8261176e91906122b4565b915081925050509392505050565b60405180608001604052805f81526020015f815260200160608152602001606081525090565b6040518060a0016040528060608152602001606081526020015f73ffffffffffffffffffffffffffffffffffffffff1681526020015f151581526020015f81525090565b60405180606001604052805f81526020015f81526020015f81525090565b508054611810906123a5565b5f825580601f10611821575061183e565b601f0160209004905f5260205f209081019061183d9190611841565b5b50565b5b80821115611858575f815f905550600101611842565b5090565b5f604051905090565b5f5ffd5b5f5ffd5b5f5ffd5b5f5ffd5b5f601f19601f8301169050919050565b7f4e487b71000000000000000000000000000000000000000000000000000000005f52604160045260245ffd5b6118bb82611875565b810181811067ffffffffffffffff821117156118da576118d9611885565b5b80604052505050565b5f6118ec61185c565b90506118f882826118b2565b919050565b5f67ffffffffffffffff82111561191757611916611885565b5b61192082611875565b9050602081019050919050565b828183375f83830152505050565b5f61194d611948846118fd565b6118e3565b90508281526020810184848401111561196957611968611871565b5b61197484828561192d565b509392505050565b5f82601f8301126119905761198f61186d565b5b81356119a084826020860161193b565b91505092915050565b5f819050919050565b6119bb816119a9565b81146119c5575f5ffd5b50565b5f813590506119d6816119b2565b92915050565b5f5f5f606084860312156119f3576119f2611865565b5b5f84013567ffffffffffffffff811115611a1057611a0f611869565b5b611a1c8682870161197c565b9350506020611a2d868287016119c8565b9250506040611a3e868287016119c8565b9150509250925092565b5f81519050919050565b5f82825260208201905092915050565b5f819050602082019050919050565b611a7a816119a9565b82525050565b5f81519050919050565b5f82825260208201905092915050565b8281835e5f83830152505050565b5f611ab282611a80565b611abc8185611a8a565b9350611acc818560208601611a9a565b611ad581611875565b840191505092915050565b5f608083015f830151611af55f860182611a71565b506020830151611b086020860182611a71565b5060408301518482036040860152611b208282611aa8565b91505060608301518482036060860152611b3a8282611aa8565b9150508091505092915050565b5f611b528383611ae0565b905092915050565b5f602082019050919050565b5f611b7082611a48565b611b7a8185611a52565b935083602082028501611b8c85611a62565b805f5b85811015611bc75784840389528151611ba88582611b47565b9450611bb383611b5a565b925060208a01995050600181019050611b8f565b50829750879550505050505092915050565b5f6020820190508181035f830152611bf18184611b66565b905092915050565b5f60208284031215611c0e57611c0d611865565b5b5f82013567ffffffffffffffff811115611c2b57611c2a611869565b5b611c378482850161197c565b91505092915050565b5f82825260208201905092915050565b5f611c5a82611a80565b611c648185611c40565b9350611c74818560208601611a9a565b611c7d81611875565b840191505092915050565b5f73ffffffffffffffffffffffffffffffffffffffff82169050919050565b5f611cb182611c88565b9050919050565b611cc181611ca7565b82525050565b5f8115159050919050565b611cdb81611cc7565b82525050565b611cea816119a9565b82525050565b5f60a0820190508181035f830152611d088188611c50565b90508181036020830152611d1c8187611c50565b9050611d2b6040830186611cb8565b611d386060830185611cd2565b611d456080830184611ce1565b9695505050505050565b5f5f5f5f60808587031215611d6757611d66611865565b5b5f85013567ffffffffffffffff811115611d8457611d83611869565b5b611d908782880161197c565b9450506020611da1878288016119c8565b935050604085013567ffffffffffffffff811115611dc257611dc1611869565b5b611dce8782880161197c565b925050606085013567ffffffffffffffff811115611def57611dee611869565b5b611dfb8782880161197c565b91505092959194509250565b611e1081611ca7565b82525050565b611e1f81611cc7565b82525050565b5f60a083015f8301518482035f860152611e3f8282611aa8565b91505060208301518482036020860152611e598282611aa8565b9150506040830151611e6e6040860182611e07565b506060830151611e816060860182611e16565b506080830151611e946080860182611a71565b508091505092915050565b5f6020820190508181035f830152611eb78184611e25565b905092915050565b5f602082019050611ed25f830184611ce1565b92915050565b5f5f60408385031215611eee57611eed611865565b5b5f83013567ffffffffffffffff811115611f0b57611f0a611869565b5b611f178582860161197c565b925050602083013567ffffffffffffffff811115611f3857611f37611869565b5b611f448582860161197c565b9150509250929050565b5f81519050919050565b5f82825260208201905092915050565b5f819050602082019050919050565b606082015f820151611f8b5f850182611a71565b506020820151611f9e6020850182611a71565b506040820151611fb16040850182611a71565b50505050565b5f611fc28383611f77565b60608301905092915050565b5f602082019050919050565b5f611fe482611f4e565b611fee8185611f58565b9350611ff983611f68565b805f5b838110156120295781516120108882611fb7565b975061201b83611fce565b925050600181019050611ffc565b5085935050505092915050565b5f6020820190508181035f83015261204e8184611fda565b905092915050565b5f5f6040838503121561206c5761206b611865565b5b5f83013567ffffffffffffffff81111561208957612088611869565b5b6120958582860161197c565b92505060206120a6858286016119c8565b9150509250929050565b5f6080820190506120c35f830187611ce1565b6120d06020830186611ce1565b81810360408301526120e28185611c50565b905081810360608301526120f68184611c50565b905095945050505050565b5f6060820190506121145f830186611ce1565b6121216020830185611ce1565b61212e6040830184611ce1565b949350505050565b606082015f82015161214a5f850182611a71565b50602082015161215d6020850182611a71565b5060408201516121706040850182611a71565b50505050565b5f6060820190506121895f830184612136565b92915050565b7f496e76616c696420646174652072616e676500000000000000000000000000005f82015250565b5f6121c3601283611c40565b91506121ce8261218f565b602082019050919050565b5f6020820190508181035f8301526121f0816121b7565b9050919050565b7f4e487b71000000000000000000000000000000000000000000000000000000005f52601160045260245ffd5b5f61222e826119a9565b9150612239836119a9565b9250828203905081811115612251576122506121f7565b5b92915050565b7f4e487b71000000000000000000000000000000000000000000000000000000005f52601260045260245ffd5b5f61228e826119a9565b9150612299836119a9565b9250826122a9576122a8612257565b5b828204905092915050565b5f6122be826119a9565b91506122c9836119a9565b92508282019050808211156122e1576122e06121f7565b5b92915050565b5f6122f1826119a9565b91506122fc836119a9565b925082820261230a816119a9565b91508282048414831517612321576123206121f7565b5b5092915050565b5f81905092915050565b5f61233c82611a80565b6123468185612328565b9350612356818560208601611a9a565b80840191505092915050565b5f61236d8284612332565b915081905092915050565b7f4e487b71000000000000000000000000000000000000000000000000000000005f52602260045260245ffd5b5f60028204905060018216806123bc57607f821691505b6020821081036123cf576123ce612378565b5b50919050565b7f4e487b71000000000000000000000000000000000000000000000000000000005f52603260045260245ffd5b7f4e6f7420646576696365206f776e6572000000000000000000000000000000005f82015250565b5f612436601083611c40565b915061244182612402565b602082019050919050565b5f6020820190508181035f8301526124638161242a565b9050919050565b7f446576696365206973206e6f74206163746976650000000000000000000000005f82015250565b5f61249e601483611c40565b91506124a98261246a565b602082019050919050565b5f6020820190508181035f8301526124cb81612492565b9050919050565b5f6124dc826119a9565b91506124e7836119a9565b9250826124f7576124f6612257565b5b828206905092915050565b5f819050815f5260205f209050919050565b5f6020601f8301049050919050565b5f82821b905092915050565b5f6008830261255e7fffffffffffffffffffffffffffffffffffffffffffffffffffffffffffffffff82612523565b6125688683612523565b95508019841693508086168417925050509392505050565b5f819050919050565b5f6125a361259e612599846119a9565b612580565b6119a9565b9050919050565b5f819050919050565b6125bc83612589565b6125d06125c8826125aa565b84845461252f565b825550505050565b5f5f905090565b6125e76125d8565b6125f28184846125b3565b505050565b5b818110156126155761260a5f826125df565b6001810190506125f8565b5050565b601f82111561265a5761262b81612502565b61263484612514565b81016020851015612643578190505b61265761264f85612514565b8301826125f7565b50505b505050565b5f82821c905092915050565b5f61267a5f198460080261265f565b1980831691505092915050565b5f612692838361266b565b9150826002028217905092915050565b6126ab82611a80565b67ffffffffffffffff8111156126c4576126c3611885565b5b6126ce82546123a5565b6126d9828285612619565b5f60209050601f83116001811461270a575f84156126f8578287015190505b6127028582612687565b865550612769565b601f19841661271886612502565b5f5b8281101561273f5784890151825560018201915060208501945060208101905061271a565b8683101561275c5784890151612758601f89168261266b565b8355505b6001600288020188555050505b505050505050565b5f61277b826119a9565b91507fffffffffffffffffffffffffffffffffffffffffffffffffffffffffffffffff82036127ad576127ac6121f7565b5b600182019050919050565b5f6060820190508181035f8301526127d08186611c50565b90506127df6020830185611ce1565b6127ec6040830184611ce1565b949350505050565b7f446576696365206e6f7420666f756e64000000000000000000000000000000005f82015250565b5f612828601083611c40565b9150612833826127f4565b602082019050919050565b5f6020820190508181035f8301526128558161281c565b9050919050565b7f44657669636520616c72656164792072656769737465726564000000000000005f82015250565b5f612890601983611c40565b915061289b8261285c565b602082019050919050565b5f6020820190508181035f8301526128bd81612884565b9050919050565b5f6060820190508181035f8301526128dc8186611c50565b905081810360208301526128f08185611c50565b90506128ff6040830184611cb8565b949350505050565b7f496e76616c69642062617463682073697a6500000000000000000000000000005f82015250565b5f61293b601283611c40565b915061294682612907565b602082019050919050565b5f6020820190508181035f8301526129688161292f565b905091905056fea26469706673582212208029261ebd1cd14ba1ebe61802cfcda58e3c43e4e91e616fb1303db6ba87eeb564736f6c634300081c0033","linkReferences":{}},"methodIdentifiers":{"DATA_RETENTION_DAYS()":"57f4a546","cleanupOldData(string,uint256)":"7a27d0d7","deviceDailyData(string,uint256)":"d38f0a84","deviceMonthlyData(string,uint256)":"de05a18f","devices(string)":"22233396","getCurrentMonthTimestamp()":"357078df","getDeviceEnergyData(string,uint256,uint256)":"0f2c624d","getDeviceInfo(string)":"3044ef49","getMonthlyAggregate(string,uint256)":"f9b7fabe","getMonthlyAggregates(string,uint256,uint256)":"51c15446","recordEnergyUsage(string,uint256,string,string)":"24844453","registerDevice(string,string)":"4c32f347"},"id":19}