{"abi":[{"type":"function","name":"DATA_RETENTION_DAYS","inputs":[],"outputs":[{"name":"","type":"uint256","internalType":"uint256"}],"stateMutability":"view"},{"type":"function","name":"deviceDailyData","inputs":[{"name":"","type":"string","internalType":"string"},{"name":"","type":"uint256","internalType":"uint256"}],"outputs":[{"name":"timestamp","type":"uint64","internalType":"uint64"},{"name":"value","type":"uint32","internalType":"uint32"}],"stateMutability":"view"},{"type":"function","name":"devices","inputs":[{"name":"","type":"string","internalType":"string"}],"outputs":[{"name":"owner","type":"address","internalType":"address"},{"name":"regTime","type":"uint256","internalType":"uint256"}],"stateMutability":"view"},{"type":"function","name":"getDevice","inputs":[{"name":"deviceId","type":"string","internalType":"string"}],"outputs":[{"name":"","type":"tuple","internalType":"struct EnergyTracker.Device","components":[{"name":"owner","type":"address","internalType":"address"},{"name":"regTime","type":"uint256","internalType":"uint256"}]}],"stateMutability":"view"},{"type":"function","name":"getEnergyData","inputs":[{"name":"deviceId","type":"string","internalType":"string"},{"name":"date","type":"uint256","internalType":"uint256"}],"outputs":[{"name":"","type":"tuple","internalType":"struct EnergyTracker.EnergyData","components":[{"name":"timestamp","type":"uint64","internalType":"uint64"},{"name":"value","type":"uint32","internalType":"uint32"}]}],"stateMutability":"view"},{"type":"function","name":"getOwnerDevices","inputs":[{"name":"owner","type":"address","internalType":"address"}],"outputs":[{"name":"","type":"string[]","internalType":"string[]"}],"stateMutability":"view"},{"type":"function","name":"ownerDevices","inputs":[{"name":"","type":"address","internalType":"address"},{"name":"","type":"uint256","internalType":"uint256"}],"outputs":[{"name":"","type":"string","internalType":"string"}],"stateMutability":"view"},{"type":"function","name":"recordEnergyUsage","inputs":[{"name":"deviceId","type":"string","internalType":"string"},{"name":"value","type":"uint32","internalType":"uint32"}],"outputs":[],"stateMutability":"nonpayable"},{"type":"function","name":"registerDevice","inputs":[{"name":"deviceId","type":"string","internalType":"string"}],"outputs":[],"stateMutability":"nonpayable"},{"type":"event","name":"DeviceRegistered","inputs":[{"name":"deviceId","type":"string","indexed":true,"internalType":"string"},{"name":"owner","type":"address","indexed":true,"internalType":"address"},{"name":"regTime","type":"uint256","indexed":false,"internalType":"uint256"}],"anonymous":false},{"type":"event","name":"EnergyRecorded","inputs":[{"name":"deviceId","type":"string","indexed":true,"internalType":"string"},{"name":"value","type":"uint32","indexed":false,"internalType":"uint32"},{"name":"timestamp","type":"uint64","indexed":false,"internalType":"uint64"}],"anonymous":false}],"bytecode":{"object":"0x6080604052348015600e575f5ffd5b506115df8061001c5f395ff3fe608060405234801561000f575f5ffd5b5060043610610091575f3560e01c8063c4fcbd7011610064578063c4fcbd7014610144578063cf4b985e14610160578063d38f0a841461017c578063e46b4786146101ad578063eeb3d714146101dd57610091565b8063222333961461009557806357f4a546146100c6578063b71a0346146100e4578063bfb4493f14610114575b5f5ffd5b6100af60048036038101906100aa9190610bb5565b61020d565b6040516100bd929190610c53565b60405180910390f35b6100ce610263565b6040516100db9190610c7a565b60405180910390f35b6100fe60048036038101906100f99190610bb5565b610269565b60405161010b9190610cde565b60405180910390f35b61012e60048036038101906101299190610d21565b6102fe565b60405161013b9190610e67565b60405180910390f35b61015e60048036038101906101599190610ec0565b61040f565b005b61017a60048036038101906101759190610bb5565b610646565b005b61019660048036038101906101919190610f44565b61085f565b6040516101a4929190610fcf565b60405180910390f35b6101c760048036038101906101c29190610ff6565b6108c4565b6040516101d4919061107c565b60405180910390f35b6101f760048036038101906101f29190610f44565b610975565b60405161020491906110e7565b60405180910390f35b5f818051602081018201805184825260208301602085012081835280955050505050505f91509050805f015f9054906101000a900473ffffffffffffffffffffffffffffffffffffffff16908060010154905082565b61016d81565b610271610a12565b5f82604051610280919061113a565b90815260200160405180910390206040518060400160405290815f82015f9054906101000a900473ffffffffffffffffffffffffffffffffffffffff1673ffffffffffffffffffffffffffffffffffffffff1673ffffffffffffffffffffffffffffffffffffffff1681526020016001820154815250509050919050565b606060025f8373ffffffffffffffffffffffffffffffffffffffff1673ffffffffffffffffffffffffffffffffffffffff1681526020019081526020015f20805480602002602001604051908101604052809291908181526020015f905b82821015610404578382905f5260205f200180546103799061117d565b80601f01602080910402602001604051908101604052809291908181526020018280546103a59061117d565b80156103f05780601f106103c7576101008083540402835291602001916103f0565b820191905f5260205f20905b8154815290600101906020018083116103d357829003601f168201915b50505050508152602001906001019061035c565b505050509050919050565b3373ffffffffffffffffffffffffffffffffffffffff165f83604051610435919061113a565b90815260200160405180910390205f015f9054906101000a900473ffffffffffffffffffffffffffffffffffffffff1673ffffffffffffffffffffffffffffffffffffffff16146104bb576040517f08c379a00000000000000000000000000000000000000000000000000000000081526004016104b2906111f7565b60405180910390fd5b5f62015180426104cb919061126f565b90505f6001846040516104de919061113a565b90815260200160405180910390205f61016d846104fb919061129f565b81526020019081526020015f205f015f9054906101000a900467ffffffffffffffff1667ffffffffffffffff161461059a5760018360405161053d919061113a565b90815260200160405180910390205f61016d8361055a919061129f565b81526020019081526020015f205f5f82015f6101000a81549067ffffffffffffffff02191690555f820160086101000a81549063ffffffff021916905550505b60405180604001604052804267ffffffffffffffff1681526020018363ffffffff168152506001846040516105cf919061113a565b90815260200160405180910390205f8381526020019081526020015f205f820151815f015f6101000a81548167ffffffffffffffff021916908367ffffffffffffffff1602179055506020820151815f0160086101000a81548163ffffffff021916908363ffffffff160217905550905050505050565b5f73ffffffffffffffffffffffffffffffffffffffff165f8260405161066c919061113a565b90815260200160405180910390205f015f9054906101000a900473ffffffffffffffffffffffffffffffffffffffff1673ffffffffffffffffffffffffffffffffffffffff16146106f2576040517f08c379a00000000000000000000000000000000000000000000000000000000081526004016106e99061131c565b60405180910390fd5b60405180604001604052803373ffffffffffffffffffffffffffffffffffffffff168152602001428152505f8260405161072c919061113a565b90815260200160405180910390205f820151815f015f6101000a81548173ffffffffffffffffffffffffffffffffffffffff021916908373ffffffffffffffffffffffffffffffffffffffff1602179055506020820151816001015590505060025f3373ffffffffffffffffffffffffffffffffffffffff1673ffffffffffffffffffffffffffffffffffffffff1681526020019081526020015f2081908060018154018082558091505060019003905f5260205f20015f9091909190915090816107f791906114da565b503373ffffffffffffffffffffffffffffffffffffffff168160405161081d919061113a565b60405180910390207f3ed945e864f22ac1cc5d84e1e78dbceb9c280c631ac6f95b7d0b5a37b9b8f523426040516108549190610c7a565b60405180910390a350565b600182805160208101820180518482526020830160208501208183528095505050505050602052805f5260405f205f9150915050805f015f9054906101000a900467ffffffffffffffff1690805f0160089054906101000a900463ffffffff16905082565b6002602052815f5260405f2081815481106108dd575f80fd5b905f5260205f20015f915091505080546108f69061117d565b80601f01602080910402602001604051908101604052809291908181526020018280546109229061117d565b801561096d5780601f106109445761010080835404028352916020019161096d565b820191905f5260205f20905b81548152906001019060200180831161095057829003601f168201915b505050505081565b61097d610a40565b60018360405161098d919061113a565b90815260200160405180910390205f8381526020019081526020015f206040518060400160405290815f82015f9054906101000a900467ffffffffffffffff1667ffffffffffffffff1667ffffffffffffffff1681526020015f820160089054906101000a900463ffffffff1663ffffffff1663ffffffff1681525050905092915050565b60405180604001604052805f73ffffffffffffffffffffffffffffffffffffffff1681526020015f81525090565b60405180604001604052805f67ffffffffffffffff1681526020015f63ffffffff1681525090565b5f604051905090565b5f5ffd5b5f5ffd5b5f5ffd5b5f5ffd5b5f601f19601f8301169050919050565b7f4e487b71000000000000000000000000000000000000000000000000000000005f52604160045260245ffd5b610ac782610a81565b810181811067ffffffffffffffff82111715610ae657610ae5610a91565b5b80604052505050565b5f610af8610a68565b9050610b048282610abe565b919050565b5f67ffffffffffffffff821115610b2357610b22610a91565b5b610b2c82610a81565b9050602081019050919050565b828183375f83830152505050565b5f610b59610b5484610b09565b610aef565b905082815260208101848484011115610b7557610b74610a7d565b5b610b80848285610b39565b509392505050565b5f82601f830112610b9c57610b9b610a79565b5b8135610bac848260208601610b47565b91505092915050565b5f60208284031215610bca57610bc9610a71565b5b5f82013567ffffffffffffffff811115610be757610be6610a75565b5b610bf384828501610b88565b91505092915050565b5f73ffffffffffffffffffffffffffffffffffffffff82169050919050565b5f610c2582610bfc565b9050919050565b610c3581610c1b565b82525050565b5f819050919050565b610c4d81610c3b565b82525050565b5f604082019050610c665f830185610c2c565b610c736020830184610c44565b9392505050565b5f602082019050610c8d5f830184610c44565b92915050565b610c9c81610c1b565b82525050565b610cab81610c3b565b82525050565b604082015f820151610cc55f850182610c93565b506020820151610cd86020850182610ca2565b50505050565b5f604082019050610cf15f830184610cb1565b92915050565b610d0081610c1b565b8114610d0a575f5ffd5b50565b5f81359050610d1b81610cf7565b92915050565b5f60208284031215610d3657610d35610a71565b5b5f610d4384828501610d0d565b91505092915050565b5f81519050919050565b5f82825260208201905092915050565b5f819050602082019050919050565b5f81519050919050565b5f82825260208201905092915050565b8281835e5f83830152505050565b5f610da782610d75565b610db18185610d7f565b9350610dc1818560208601610d8f565b610dca81610a81565b840191505092915050565b5f610de08383610d9d565b905092915050565b5f602082019050919050565b5f610dfe82610d4c565b610e088185610d56565b935083602082028501610e1a85610d66565b805f5b85811015610e555784840389528151610e368582610dd5565b9450610e4183610de8565b925060208a01995050600181019050610e1d565b50829750879550505050505092915050565b5f6020820190508181035f830152610e7f8184610df4565b905092915050565b5f63ffffffff82169050919050565b610e9f81610e87565b8114610ea9575f5ffd5b50565b5f81359050610eba81610e96565b92915050565b5f5f60408385031215610ed657610ed5610a71565b5b5f83013567ffffffffffffffff811115610ef357610ef2610a75565b5b610eff85828601610b88565b9250506020610f1085828601610eac565b9150509250929050565b610f2381610c3b565b8114610f2d575f5ffd5b50565b5f81359050610f3e81610f1a565b92915050565b5f5f60408385031215610f5a57610f59610a71565b5b5f83013567ffffffffffffffff811115610f7757610f76610a75565b5b610f8385828601610b88565b9250506020610f9485828601610f30565b9150509250929050565b5f67ffffffffffffffff82169050919050565b610fba81610f9e565b82525050565b610fc981610e87565b82525050565b5f604082019050610fe25f830185610fb1565b610fef6020830184610fc0565b9392505050565b5f5f6040838503121561100c5761100b610a71565b5b5f61101985828601610d0d565b925050602061102a85828601610f30565b9150509250929050565b5f82825260208201905092915050565b5f61104e82610d75565b6110588185611034565b9350611068818560208601610d8f565b61107181610a81565b840191505092915050565b5f6020820190508181035f8301526110948184611044565b905092915050565b6110a581610f9e565b82525050565b6110b481610e87565b82525050565b604082015f8201516110ce5f85018261109c565b5060208201516110e160208501826110ab565b50505050565b5f6040820190506110fa5f8301846110ba565b92915050565b5f81905092915050565b5f61111482610d75565b61111e8185611100565b935061112e818560208601610d8f565b80840191505092915050565b5f611145828461110a565b915081905092915050565b7f4e487b71000000000000000000000000000000000000000000000000000000005f52602260045260245ffd5b5f600282049050600182168061119457607f821691505b6020821081036111a7576111a6611150565b5b50919050565b7f4e6f7420646576696365206f776e6572000000000000000000000000000000005f82015250565b5f6111e1601083611034565b91506111ec826111ad565b602082019050919050565b5f6020820190508181035f83015261120e816111d5565b9050919050565b7f4e487b71000000000000000000000000000000000000000000000000000000005f52601260045260245ffd5b7f4e487b71000000000000000000000000000000000000000000000000000000005f52601160045260245ffd5b5f61127982610c3b565b915061128483610c3b565b92508261129457611293611215565b5b828204905092915050565b5f6112a982610c3b565b91506112b483610c3b565b92508282039050818111156112cc576112cb611242565b5b92915050565b7f44657669636520616c72656164792072656769737465726564000000000000005f82015250565b5f611306601983611034565b9150611311826112d2565b602082019050919050565b5f6020820190508181035f830152611333816112fa565b9050919050565b5f819050815f5260205f209050919050565b5f6020601f8301049050919050565b5f82821b905092915050565b5f600883026113967fffffffffffffffffffffffffffffffffffffffffffffffffffffffffffffffff8261135b565b6113a0868361135b565b95508019841693508086168417925050509392505050565b5f819050919050565b5f6113db6113d66113d184610c3b565b6113b8565b610c3b565b9050919050565b5f819050919050565b6113f4836113c1565b611408611400826113e2565b848454611367565b825550505050565b5f5f905090565b61141f611410565b61142a8184846113eb565b505050565b5b8181101561144d576114425f82611417565b600181019050611430565b5050565b601f821115611492576114638161133a565b61146c8461134c565b8101602085101561147b578190505b61148f6114878561134c565b83018261142f565b50505b505050565b5f82821c905092915050565b5f6114b25f1984600802611497565b1980831691505092915050565b5f6114ca83836114a3565b9150826002028217905092915050565b6114e382610d75565b67ffffffffffffffff8111156114fc576114fb610a91565b5b611506825461117d565b611511828285611451565b5f60209050601f831160018114611542575f8415611530578287015190505b61153a85826114bf565b8655506115a1565b601f1984166115508661133a565b5f5b8281101561157757848901518255600182019150602085019450602081019050611552565b868310156115945784890151611590601f8916826114a3565b8355505b6001600288020188555050505b50505050505056fea2646970667358221220503c8c2d1d02bdb7090fa5012e3d20e45e1afd7b4d01f5487cb66e044e0ef05564736f6c634300081c0033","linkReferences":{}},"methodIdentifiers":{"DATA_RETENTION_DAYS()":"57f4a546","deviceDailyData(string,uint256)":"d38f0a84","devices(string)":"22233396","getDevice(string)":"b71a0346","getEnergyData(string,uint256)":"eeb3d714","getOwnerDevices(address)":"bfb4493f","ownerDevices(address,uint256)":"e46b4786","recordEnergyUsage(string,uint32)":"c4fcbd70","registerDevice(string)":"cf4b985e"},"id":19}