{"abi":[{"type":"function","name":"DATA_RETENTION_DAYS","inputs":[],"outputs":[{"name":"","type":"uint256","internalType":"uint256"}],"stateMutability":"view"},{"type":"function","name":"cleanupOldData","inputs":[{"name":"deviceId","type":"string","internalType":"string"},{"name":"batchSize","type":"uint256","internalType":"uint256"}],"outputs":[],"stateMutability":"nonpayable"},{"type":"function","name":"deviceDailyData","inputs":[{"name":"","type":"string","internalType":"string"},{"name":"","type":"uint256","internalType":"uint256"}],"outputs":[{"name":"timestamp","type":"uint256","internalType":"uint256"},{"name":"energyUsage","type":"uint32","internalType":"uint32"}],"stateMutability":"view"},{"type":"function","name":"deviceMonthlyData","inputs":[{"name":"","type":"string","internalType":"string"},{"name":"","type":"uint256","internalType":"uint256"},{"name":"","type":"uint256","internalType":"uint256"}],"outputs":[{"name":"year","type":"uint256","internalType":"uint256"},{"name":"month","type":"uint256","internalType":"uint256"},{"name":"totalEnergyUsage","type":"uint128","internalType":"uint128"}],"stateMutability":"view"},{"type":"function","name":"devices","inputs":[{"name":"","type":"string","internalType":"string"}],"outputs":[{"name":"owner","type":"address","internalType":"address"},{"name":"registrationTime","type":"uint256","internalType":"uint256"}],"stateMutability":"view"},{"type":"function","name":"getCurrentYearMonth","inputs":[],"outputs":[{"name":"year","type":"uint256","internalType":"uint256"},{"name":"month","type":"uint256","internalType":"uint256"}],"stateMutability":"view"},{"type":"function","name":"getDeviceEnergyData","inputs":[{"name":"deviceId","type":"string","internalType":"string"},{"name":"date","type":"uint256","internalType":"uint256"}],"outputs":[{"name":"","type":"tuple","internalType":"struct EnergyTrackerOptimized.EnergyData","components":[{"name":"timestamp","type":"uint256","internalType":"uint256"},{"name":"energyUsage","type":"uint32","internalType":"uint32"}]}],"stateMutability":"view"},{"type":"function","name":"getDeviceInfo","inputs":[{"name":"deviceId","type":"string","internalType":"string"}],"outputs":[{"name":"","type":"tuple","internalType":"struct EnergyTrackerOptimized.Device","components":[{"name":"owner","type":"address","internalType":"address"},{"name":"registrationTime","type":"uint256","internalType":"uint256"}]}],"stateMutability":"view"},{"type":"function","name":"getMonthlyAggregate","inputs":[{"name":"deviceId","type":"string","internalType":"string"},{"name":"year","type":"uint256","internalType":"uint256"},{"name":"month","type":"uint256","internalType":"uint256"}],"outputs":[{"name":"","type":"tuple","internalType":"struct EnergyTrackerOptimized.MonthlyAggregate","components":[{"name":"year","type":"uint256","internalType":"uint256"},{"name":"month","type":"uint256","internalType":"uint256"},{"name":"totalEnergyUsage","type":"uint128","internalType":"uint128"}]}],"stateMutability":"view"},{"type":"function","name":"recordEnergyUsage","inputs":[{"name":"deviceId","type":"string","internalType":"string"},{"name":"energyUsage","type":"uint32","internalType":"uint32"}],"outputs":[],"stateMutability":"nonpayable"},{"type":"function","name":"registerDevice","inputs":[{"name":"deviceId","type":"string","internalType":"string"}],"outputs":[],"stateMutability":"nonpayable"},{"type":"event","name":"DeviceRegistered","inputs":[{"name":"deviceId","type":"string","indexed":true,"internalType":"string"},{"name":"owner","type":"address","indexed":true,"internalType":"address"}],"anonymous":false},{"type":"event","name":"EnergyDataRecorded","inputs":[{"name":"deviceId","type":"string","indexed":true,"internalType":"string"},{"name":"energyUsage","type":"uint256","indexed":false,"internalType":"uint256"},{"name":"timestamp","type":"uint256","indexed":false,"internalType":"uint256"}],"anonymous":false},{"type":"error","name":"DeviceAlreadyRegistered","inputs":[]},{"type":"error","name":"DeviceNotFound","inputs":[]},{"type":"error","name":"InvalidBatchSize","inputs":[]},{"type":"error","name":"InvalidDateRange","inputs":[]},{"type":"error","name":"NotDeviceOwner","inputs":[]}],"bytecode":{"object":"0x6080604052348015600e575f5ffd5b506115fe8061001c5f395ff3fe608060405234801561000f575f5ffd5b50600436106100a7575f3560e01c80637a27d0d71161006f5780637a27d0d71461017b5780638e5908f714610197578063bbd29863146101c7578063c4fcbd70146101f7578063cf4b985e14610213578063d38f0a841461022f576100a7565b806307a8a9e7146100ab57806322233396146100dd5780633044ef491461010e5780635722fdfa1461013e57806357f4a5461461015d575b5f5ffd5b6100c560048036038101906100c09190610f0a565b610260565b6040516100d493929190610faf565b60405180910390f35b6100f760048036038101906100f29190610fe4565b6102cf565b60405161010592919061106a565b60405180910390f35b61012860048036038101906101239190610fe4565b610325565b60405161013591906110dc565b60405180910390f35b61014661045d565b6040516101549291906110f5565b60405180910390f35b610165610470565b604051610172919061111c565b60405180910390f35b61019560048036038101906101909190611135565b610476565b005b6101b160048036038101906101ac9190610f0a565b610667565b6040516101be91906111de565b60405180910390f35b6101e160048036038101906101dc9190611135565b61071b565b6040516101ee9190611242565b60405180910390f35b610211600480360381019061020c9190611285565b610791565b005b61022d60048036038101906102289190610fe4565b610aad565b005b61024960048036038101906102449190611135565b610c45565b6040516102579291906112ee565b60405180910390f35b600283805160208101820180518482526020830160208501208183528095505050505050602052815f5260405f20602052805f5260405f205f925092505050805f015490806001015490806002015f9054906101000a90046fffffffffffffffffffffffffffffffff16905083565b5f818051602081018201805184825260208301602085012081835280955050505050505f91509050805f015f9054906101000a900473ffffffffffffffffffffffffffffffffffffffff16908060010154905082565b61032d610d0e565b5f73ffffffffffffffffffffffffffffffffffffffff165f836040516103539190611367565b90815260200160405180910390205f015f9054906101000a900473ffffffffffffffffffffffffffffffffffffffff1673ffffffffffffffffffffffffffffffffffffffff16036103d0576040517fddcaf07600000000000000000000000000000000000000000000000000000000815260040160405180910390fd5b5f826040516103df9190611367565b90815260200160405180910390206040518060400160405290815f82015f9054906101000a900473ffffffffffffffffffffffffffffffffffffffff1673ffffffffffffffffffffffffffffffffffffffff1673ffffffffffffffffffffffffffffffffffffffff1681526020016001820154815250509050919050565b5f5f61046842610c97565b915091509091565b61016e81565b813373ffffffffffffffffffffffffffffffffffffffff165f8260405161049d9190611367565b90815260200160405180910390205f015f9054906101000a900473ffffffffffffffffffffffffffffffffffffffff1673ffffffffffffffffffffffffffffffffffffffff161461051a576040517f16c352ff00000000000000000000000000000000000000000000000000000000815260040160405180910390fd5b5f8214806105285750606482115b1561055f576040517f7862e95900000000000000000000000000000000000000000000000000000000815260040160405180910390fd5b5f6201518061016e61057191906113aa565b4261057c91906113eb565b90505f620151804261058e919061144b565b4261059991906113eb565b90505f5f90505f8290505b85821080156105b257508381115b1561065e575f6001886040516105c89190611367565b90815260200160405180910390205f8381526020019081526020015f205f01541461063a576001876040516105fd9190611367565b90815260200160405180910390205f8281526020019081526020015f205f5f82015f9055600182015f6101000a81549063ffffffff021916905550505b620151808161064991906113eb565b905081806106569061147b565b9250506105a4565b50505050505050565b61066f610d3c565b60028460405161067f9190611367565b90815260200160405180910390205f8481526020019081526020015f205f8381526020019081526020015f206040518060600160405290815f820154815260200160018201548152602001600282015f9054906101000a90046fffffffffffffffffffffffffffffffff166fffffffffffffffffffffffffffffffff166fffffffffffffffffffffffffffffffff168152505090509392505050565b610723610d6c565b6001836040516107339190611367565b90815260200160405180910390205f8381526020019081526020015f206040518060400160405290815f8201548152602001600182015f9054906101000a900463ffffffff1663ffffffff1663ffffffff1681525050905092915050565b813373ffffffffffffffffffffffffffffffffffffffff165f826040516107b89190611367565b90815260200160405180910390205f015f9054906101000a900473ffffffffffffffffffffffffffffffffffffffff1673ffffffffffffffffffffffffffffffffffffffff1614610835576040517f16c352ff00000000000000000000000000000000000000000000000000000000815260040160405180910390fd5b5f6201518042610845919061144b565b4261085091906113eb565b90505f5f61085d42610c97565b9150915060405180604001604052804281526020018663ffffffff1681525060018760405161088c9190611367565b90815260200160405180910390205f8581526020019081526020015f205f820151815f01556020820151816001015f6101000a81548163ffffffff021916908363ffffffff1602179055509050505f6002876040516108eb9190611367565b90815260200160405180910390205f8481526020019081526020015f205f8381526020019081526020015f2090505f815f0154036109ea5760405180606001604052808481526020018381526020018763ffffffff166fffffffffffffffffffffffffffffffff168152506002886040516109669190611367565b90815260200160405180910390205f8581526020019081526020015f205f8481526020019081526020015f205f820151815f0155602082015181600101556040820151816002015f6101000a8154816fffffffffffffffffffffffffffffffff02191690836fffffffffffffffffffffffffffffffff160217905550905050610a55565b8563ffffffff16816002015f8282829054906101000a90046fffffffffffffffffffffffffffffffff16610a1e91906114c2565b92506101000a8154816fffffffffffffffffffffffffffffffff02191690836fffffffffffffffffffffffffffffffff1602179055505b86604051610a639190611367565b60405180910390207f894ae8427e58d0d7f24127e3dd4321bf928c688cb316bc905ddef4695583e3608742604051610a9c92919061153e565b60405180910390a250505050505050565b5f73ffffffffffffffffffffffffffffffffffffffff165f82604051610ad39190611367565b90815260200160405180910390205f015f9054906101000a900473ffffffffffffffffffffffffffffffffffffffff1673ffffffffffffffffffffffffffffffffffffffff1614610b50576040517f024a9f8b00000000000000000000000000000000000000000000000000000000815260040160405180910390fd5b60405180604001604052803373ffffffffffffffffffffffffffffffffffffffff168152602001428152505f82604051610b8a9190611367565b90815260200160405180910390205f820151815f015f6101000a81548173ffffffffffffffffffffffffffffffffffffffff021916908373ffffffffffffffffffffffffffffffffffffffff160217905550602082015181600101559050503373ffffffffffffffffffffffffffffffffffffffff1681604051610c0e9190611367565b60405180910390207f10fc4a53238f78d2e8ef8aa41bafb46e41f929f68f8f4233c365ef14b2f5ed5c60405160405180910390a350565b600182805160208101820180518482526020830160208501208183528095505050505050602052805f5260405f205f9150915050805f015490806001015f9054906101000a900463ffffffff16905082565b5f5f5f6201518084610ca99190611565565b90505f61016d82610cba9190611565565b9050806107b2610cca9190611595565b93505f61016d83610cdb919061144b565b90506001601e82610cec9190611565565b610cf69190611595565b9350600c841115610d0657600c93505b505050915091565b60405180604001604052805f73ffffffffffffffffffffffffffffffffffffffff1681526020015f81525090565b60405180606001604052805f81526020015f81526020015f6fffffffffffffffffffffffffffffffff1681525090565b60405180604001604052805f81526020015f63ffffffff1681525090565b5f604051905090565b5f5ffd5b5f5ffd5b5f5ffd5b5f5ffd5b5f601f19601f8301169050919050565b7f4e487b71000000000000000000000000000000000000000000000000000000005f52604160045260245ffd5b610de982610da3565b810181811067ffffffffffffffff82111715610e0857610e07610db3565b5b80604052505050565b5f610e1a610d8a565b9050610e268282610de0565b919050565b5f67ffffffffffffffff821115610e4557610e44610db3565b5b610e4e82610da3565b9050602081019050919050565b828183375f83830152505050565b5f610e7b610e7684610e2b565b610e11565b905082815260208101848484011115610e9757610e96610d9f565b5b610ea2848285610e5b565b509392505050565b5f82601f830112610ebe57610ebd610d9b565b5b8135610ece848260208601610e69565b91505092915050565b5f819050919050565b610ee981610ed7565b8114610ef3575f5ffd5b50565b5f81359050610f0481610ee0565b92915050565b5f5f5f60608486031215610f2157610f20610d93565b5b5f84013567ffffffffffffffff811115610f3e57610f3d610d97565b5b610f4a86828701610eaa565b9350506020610f5b86828701610ef6565b9250506040610f6c86828701610ef6565b9150509250925092565b610f7f81610ed7565b82525050565b5f6fffffffffffffffffffffffffffffffff82169050919050565b610fa981610f85565b82525050565b5f606082019050610fc25f830186610f76565b610fcf6020830185610f76565b610fdc6040830184610fa0565b949350505050565b5f60208284031215610ff957610ff8610d93565b5b5f82013567ffffffffffffffff81111561101657611015610d97565b5b61102284828501610eaa565b91505092915050565b5f73ffffffffffffffffffffffffffffffffffffffff82169050919050565b5f6110548261102b565b9050919050565b6110648161104a565b82525050565b5f60408201905061107d5f83018561105b565b61108a6020830184610f76565b9392505050565b61109a8161104a565b82525050565b6110a981610ed7565b82525050565b604082015f8201516110c35f850182611091565b5060208201516110d660208501826110a0565b50505050565b5f6040820190506110ef5f8301846110af565b92915050565b5f6040820190506111085f830185610f76565b6111156020830184610f76565b9392505050565b5f60208201905061112f5f830184610f76565b92915050565b5f5f6040838503121561114b5761114a610d93565b5b5f83013567ffffffffffffffff81111561116857611167610d97565b5b61117485828601610eaa565b925050602061118585828601610ef6565b9150509250929050565b61119881610f85565b82525050565b606082015f8201516111b25f8501826110a0565b5060208201516111c560208501826110a0565b5060408201516111d8604085018261118f565b50505050565b5f6060820190506111f15f83018461119e565b92915050565b5f63ffffffff82169050919050565b61120f816111f7565b82525050565b604082015f8201516112295f8501826110a0565b50602082015161123c6020850182611206565b50505050565b5f6040820190506112555f830184611215565b92915050565b611264816111f7565b811461126e575f5ffd5b50565b5f8135905061127f8161125b565b92915050565b5f5f6040838503121561129b5761129a610d93565b5b5f83013567ffffffffffffffff8111156112b8576112b7610d97565b5b6112c485828601610eaa565b92505060206112d585828601611271565b9150509250929050565b6112e8816111f7565b82525050565b5f6040820190506113015f830185610f76565b61130e60208301846112df565b9392505050565b5f81519050919050565b5f81905092915050565b8281835e5f83830152505050565b5f61134182611315565b61134b818561131f565b935061135b818560208601611329565b80840191505092915050565b5f6113728284611337565b915081905092915050565b7f4e487b71000000000000000000000000000000000000000000000000000000005f52601160045260245ffd5b5f6113b482610ed7565b91506113bf83610ed7565b92508282026113cd81610ed7565b915082820484148315176113e4576113e361137d565b5b5092915050565b5f6113f582610ed7565b915061140083610ed7565b92508282039050818111156114185761141761137d565b5b92915050565b7f4e487b71000000000000000000000000000000000000000000000000000000005f52601260045260245ffd5b5f61145582610ed7565b915061146083610ed7565b9250826114705761146f61141e565b5b828206905092915050565b5f61148582610ed7565b91507fffffffffffffffffffffffffffffffffffffffffffffffffffffffffffffffff82036114b7576114b661137d565b5b600182019050919050565b5f6114cc82610f85565b91506114d783610f85565b925082820190506fffffffffffffffffffffffffffffffff8111156114ff576114fe61137d565b5b92915050565b5f819050919050565b5f61152861152361151e846111f7565b611505565b610ed7565b9050919050565b6115388161150e565b82525050565b5f6040820190506115515f83018561152f565b61155e6020830184610f76565b9392505050565b5f61156f82610ed7565b915061157a83610ed7565b92508261158a5761158961141e565b5b828204905092915050565b5f61159f82610ed7565b91506115aa83610ed7565b92508282019050808211156115c2576115c161137d565b5b9291505056fea2646970667358221220d696936b92081c27157b78e11c67a1da6e93940aedd120a23938f44586aadfa364736f6c634300081c0033","linkReferences":{}},"methodIdentifiers":{"DATA_RETENTION_DAYS()":"57f4a546","cleanupOldData(string,uint256)":"7a27d0d7","deviceDailyData(string,uint256)":"d38f0a84","deviceMonthlyData(string,uint256,uint256)":"07a8a9e7","devices(string)":"22233396","getCurrentYearMonth()":"5722fdfa","getDeviceEnergyData(string,uint256)":"bbd29863","getDeviceInfo(string)":"3044ef49","getMonthlyAggregate(string,uint256,uint256)":"8e5908f7","recordEnergyUsage(string,uint32)":"c4fcbd70","registerDevice(string)":"cf4b985e"},"id":19}